{
  "contractName": "Faucet",
  "abi": [
    {
      "inputs": [],
      "name": "recieve",
      "outputs": [],
      "stateMutability": "payable",
      "type": "function",
      "payable": true
    }
  ],
  "bytecode": "0x6080604052348015600f57600080fd5b50606180601d6000396000f3fe608060405260043610601c5760003560e01c8063a9e10bf2146021575b600080fd5b60276029565b005b56fea26469706673582212200ff57d645210c7926216a54a0cc41970470e48ce9e0cd176ebdf72c90fb7075d64736f6c63430008040033",
  "deployedBytecode": "0x608060405260043610601c5760003560e01c8063a9e10bf2146021575b600080fd5b60276029565b005b56fea26469706673582212200ff57d645210c7926216a54a0cc41970470e48ce9e0cd176ebdf72c90fb7075d64736f6c63430008040033",
  "immutableReferences": {},
  "source": "// SPDX-License-Identifier: MIT\r\npragma solidity >=0.8.0 <0.9.0;\r\n\r\ncontract Faucet {\r\n    //special function\r\n    //its called when you make a transaction that doesnot specify function name to call\r\n\r\n    //external funtions are part of the contract interface which means they can be called via contracts and other transactions\r\n    function recieve() external payable {}\r\n}\r\n",
  "sourcePath": "D:\\web3_practice\\contracts\\FaucetContract.sol",
  "compiler": {
    "name": "solc",
    "version": "0.8.4+commit.c7e474f2.Emscripten.clang"
  },
  "schemaVersion": "3.4.11",
  "updatedAt": "2023-03-01T10:28:13.743Z",
  "networkType": "ethereum",
  "devdoc": {
    "kind": "dev",
    "methods": {},
    "version": 1
  },
  "userdoc": {
    "kind": "user",
    "methods": {},
    "version": 1
  }
}